:1000000021C0189518956CC11895189562C118955E
:100010001895189513001101111012101202030205
:10002000030103012000E8003D019A01EB013902C0
:100030008202CA02100355039903DB031D045E0408
:100040009E04DD041124A89584B7877F84BF81B501
:10005000886181BD11BC82E089BF8FE384BB789445
:10006000C4E110E008E4F02E88E6D82E552453941D
:100070009AE2292E26E0422E30E4C32E40E6342EAA
:1000800015BC2CE826B981E487B9F5BED5BE8895A4
:10009000F5BE88E0A12CB12CD5BE8895F5BE24B163
:1000A00035B1A20EB31E8150B9F723E427B928E079
:1000B00080E090E0D5BE8895F5BE44B155B1483694
:1000C000510508F46FC0840F951F215099F725E45E
:1000D00022BF23E023BF16B855BCC11156C005D1BD
:1000E0008C01C50102D18017910708F042C0980128
:1000F000280F391FB801681B790B85E004C0220F57
:10010000331F815011F037FFFACF02C07695679503
:100110008A95E2F7CB0196958795820F931F5AD166
:100120006F3F710509F0C8F4862F603440F46033E6
:1001300010F082E001C081E06295607F1CC06036F3
:1001400028F4660F660F660F83E015C0603A30F43E
:100150006056660F660F84E00EC08FEF90E0805A05
:1001600091096BEA72E025D181589F4F692F85E094
:1001700002C060E086E0262F30E0382B692D782D14
:100180004301702E612E10E06DC0C15009F05FC0B8
:10019000712C612C912C812C60E070E010E020E04B
:1001A00030E060C016B855BC22BE83E083BF1A346D
:1001B00008F051C0CF5FC53109F4C4E11F5F1532AB
:1001C000C1F5615C7F4F660F672F661F770B7195D6
:1001D000CB01EFD0813020E6920768F0BC01615F6F
:1001E0007F4FE5E076956795EA95E1F7E12CD6E05B
:1001F00020E030E037C0811520E1920768F4BC01AF
:100200006F5F7F4F7695679576956795EE24E394BB
:10021000D6E020E030E026C0BC01695F7F4F44E0BB
:10022000769567954A95E1F7E12CD0E020E030E043
:1002300019C0163298F0DD23A1F0EE2011F08D2FB9
:1002400002C0842D8D1B20E0382FD1500BC010E050
:1002500020E030E007C020E030E004C020E030E0E3
:1002600001C09B01022F832F373008F086E090E019
:10027000880F991F8C5E9F4FFC0145915491B42EBD
:10028000352FFC013296A591B4919A2F8B2F27FD23
:1002900005C00095942F852FBA2E3B2F005E007C61
:1002A000003C09F400EEC5BE35BE8895C5BE23B737
:1002B0002111FACF97BB88BBB9BC35BB88B7846026
:1002C00088BF011102C082E001C086E089BF06BF7D
:1002D000D7CE0F9309B507BB05B308BB0F9118958F
:1002E0000F9300E003BF0F9118958F3F910509F020
:1002F00068F5AC01407F5527E3E056954795EA95B0
:10030000E1F74C5D5F4FFA0125913491803F9105F3
:1003100028F4FA013296659174910AC01EBAE09AE7
:100320006DB34EB34F5F4EBBE09A4DB370E0742B8C
:10033000621B730B8F7099273CD0079674E09695DB
:1003400087957A95E1F7820F931F08959C01220FFC
:10035000232F221F330B31952E7F22502EBBE09A84
:10036000EDB32EB32F5F2EBBE09A2DB3F0E0F22B4E
:100370002EB32F5F2EBBE09A2DB33EB33F5F3EBB43
:10038000E09A4DB330E0342B2F5F3F4F2E1B3F0BD5
:10039000BC017727C901969587959695879509D0D1
:1003A0004F9666E0969587956A95E1F78E0F9F1FA9
:1003B00008950024552704C0080E591F880F991F5F
:1003C000009729F076956795B8F37105B9F7802DF8
:1003D000952F0895AA1BBB1B51E107C0AA1FBB1F85
:1003E000A617B70710F0A61BB70B881F991F5A95C1
:0C03F000A9F780959095BC01CD010895FF
:00000001FF
