:1000000021C0189518951BC11895189511C1189500
:100010001895189513001101111012101202030205
:10002000030103012000E8003D019A01EB013902C0
:100030008202CA02100355039903DB031D045E0408
:100040009E04DD041124A89584B7877F84BF81B501
:10005000886181BD11BC82E089BF8FE384BB789445
:10006000A0E0BCE8AB2EC3E49C2E18E408E6DD2437
:10007000D394DDE08D2E83E0C82E91E4792E40E408
:10008000B42E50E6652E15BCA6B897B815BF05BFAF
:10009000889515BF48E080E090E005BF889515BFC2
:1000A00064B175B16836710508F46CC0860F971F8E
:1000B000415099F777B828E0E12CF12C05BF8895DD
:1000C00015BF44B155B1E40EF51E2150B9F728E42F
:1000D00022BFC3BE16B8D5BCB7D0EC01C701B4D09F
:1000E0008C179D0708F042C09E01280F391FBE01E2
:1000F000681B790B85E004C0220F331F815011F07B
:1001000037FFFACF02C0769567958A95E2F7CB0163
:1001100096958795820F931F16D16F3F710509F051
:10012000C8F4862F603440F4603310F022E001C040
:1001300021E06295607F1CC0603628F4660F660F70
:10014000660F23E015C0603A30F46056660F660F04
:1001500024E00EC08FEF90E0805A91096BEA72E0C4
:10016000E1D081589F4F692F25E002C060E026E072
:10017000862F90E0922B252D342D21013C2E2D2E03
:10018000A0E01FC016B8D5BC82BEC3BEAA34A0F47E
:10019000AF5FA632A0F0B901615C7F4F660F672F99
:1001A000661F770B7195CB01BDD0079654E09695ED
:1001B00087955A95E1F705C080E090E002C080E0A5
:1001C00090E0682F492F973008F046E050E0440F48
:1001D000551F4C5E5F4FFA01B49131969491319660
:1001E0007491C72F3196E4914E2F87FD05C060951D
:1001F000E92F942F7B2FBC2F80E2860F807C803CE0
:1002000009F480EEB5BE65BE8895B5BE43B7411111
:10021000FACF77BBE8BBB9BD95BB98B7946098BFE0
:10022000811102C092E001C096E099BF86BF2BCF3A
:100230000F9209B407BA05B208BA0F9018950F9338
:1002400000E003BF0F9118958F3F910511F008F062
:1002500036C0BC01607F7727E3E076956795EA9525
:10026000E1F76C5D7F4FFB01249130E03196E49122
:100270003E2B803F910550F4FB013296449150E0B3
:100280003196E491BA017E2BFB010AC01EBAE09AB6
:10029000EDB34EB34F5F4EBBE09A4DB3F0E0F42B9D
:1002A000BF01621B730B8F7099273CD0079674E0D7
:1002B000969587957A95E1F7820F931F08959C0193
:1002C000220F232F221F330B31952E7F22502EBB5E
:1002D000E09AEDB32EB32F5F2EBBE09A2DB3F0E082
:1002E000F22B2EB32F5F2EBBE09A2DB33EB33F5FB0
:1002F0003EBBE09A4DB330E0342B2F5F3F4F2E1BB7
:100300003F0BBC017727C9019695879596958795F0
:1003100009D04F9666E0969587956A95E1F78E0F1E
:100320009F1F08950024552704C0080E591F880FE9
:10033000991F009729F076956795B8F37105B9F77D
:10034000802D952F0895AA1BBB1B51E107C0AA1F42
:10035000BB1FA617B70710F0A61BB70B881F991F66
:0E0360005A95A9F780959095BC01CD0108959E
:00000001FF
