:1000000021C01895189572C11895189568C1189552
:100010001895189513001101111012101202030205
:10002000030103012000E8003D019A01EB013902C0
:100030008202CA02100355039903DB031D045E0408
:100040009E04DD041124A89584B7877F84BF81B501
:10005000886181BD11BC82E089BF8FE384BB789445
:10006000C3E0A0E0F8E4FF2EB8E6DB2ECC24C39476
:100070001AE2212E06E0402E80E4982E90E6392EDA
:1000800015BC2CE826B981E487B9F5BED5BE8895A4
:10009000F5BE88E0A12CB12CD5BE8895F5BE24B163
:1000A00035B1A20EB31E8150B9F723E427B928E079
:1000B00080E090E0D5BE8895F5BE44B155B1483694
:1000C000510508F478C0840F951F215099F725E455
:1000D00022BF23E023BF16B8C5BCC1115FC00BD13E
:1000E0008C01C50108D18017910708F04AC098011A
:1000F000280F391FB801681B790B85E004C0220F57
:10010000331F815029F0A9014427507C452BB9F3B6
:1001100002C0769567958A95E2F76115710519F128
:10012000CB0196958795820F931F56D16F3F71052E
:1001300009F0D8F4862F603440F4603310F082E088
:1001400001C081E06295607F1EC0603628F4660FB2
:10015000660F660F83E017C0603A40F46056660F82
:10016000660F84E010C08FEF01C08FEF90E0805ADF
:1001700091096BEA72E01FD181589F4F692F85E08A
:1001800002C060E086E0262F30E0382B682D772D06
:10019000862C752C602E512EA0E06DC0C15009F048
:1001A0005FC0612C512C812C712C60E070E0A0E0CC
:1001B00020E030E060C016B8C5BC22BE83E083BF3B
:1001C000AA3408F051C0CF5FC43009F4C3E0AF5F78
:1001D000A532C1F5615C7F4F660F672F661F770BF5
:1001E0007195CB01E8D0813020E6920768F0BC0120
:1001F000615F7F4F35E0769567953A95E1F7E12CA1
:10020000D6E020E030E037C0811520E1920768F4A5
:10021000BC016F5F7F4F7695679576956795EE2465
:10022000E394D6E020E030E026C0BC01695F7F4F58
:1002300094E0769567959A95E1F7E12CD0E020E07F
:1002400030E019C0A63298F0DD23A1F0EE2011F0C5
:100250008D2F02C0842D8D1B20E0382FD1500BC074
:10026000A0E020E030E007C020E030E004C020E063
:1002700030E001C09B01B22FE32F373008F0E6E0F9
:10028000F0E0EE0FFF1FEC5EFF4F45915591142FEC
:10029000352F85919491F82FE92F27FD05C0B09552
:1002A000F42FE52F182F392FB05EB07CB03C09F445
:1002B000BCEE95BE35BE889595BE83B78111FACF49
:1002C000F7BBE8BB19BD35BB88B7846088BFB111E7
:1002D00002C082E001C086E089BFB6BFD1CE0F93D5
:1002E00009B507BB05B308BB0F9118950F9300E044
:1002F00003BF0F911895AC018F3F910509F050F5A0
:10030000FC01E07FFF2763E0F695E7956A95E1F74A
:10031000EC5DFF4F2591359165917491803F91057A
:1003200050F01EBAE09A9DB381E08EBBE09A8DB387
:10033000692F70E0782B621B730BCA018F709927AD
:100340003AD0079654E0969587955A95E1F7820F33
:10035000931F0895880F892F881F990B91958E7F81
:100360002EEF280F9FEF980F2EBBE09AEDB39EBBA8
:10037000E09A9DB3F0E0F92B91E0980F8EBBE09AE4
:100380002DB39EBBE09A8DB330E0382B2F5F3F4FEB
:10039000C9018E1B9F0BBA01772796958795969575
:1003A000879509D04F9646E0969587954A95E1F74F
:1003B0008E0F9F1F08950024552704C0080E591F53
:1003C000880F991F009729F076956795B8F3710506
:1003D000B9F7802D952F0895AA1BBB1B51E107C0CB
:1003E000AA1FBB1FA617B70710F0A61BB70B881FC5
:1003F000991F5A95A9F780959095BC01CD01089554
:00000001FF
